:1002D50005333443101001052E3443101001C108B5
:1002E5000A243F065B4F666D7D077F6F013800016D
:1002F5002300016100012200144D050302000000E6
:10030500000000000000000000000000000014399B
:1003150000000000000000000000000000000000D8
:0403250000000000D4
:10021E00D2B0D2B17538067523061200161203B885
:10022E00E522B401F512038A1203E112000385617F
:10023E004D12045EC2B0C2B1E56175F00A1201AD95
:10024E00AFF074242FF8E6F5803008FDC2087B006D
:10025E007A007939750D147F6112032A7B007A00BA
:10026E00794D120467E53BB401DFE4F53B8524804C
:02027E0080D727
:100016007590FEE59054F0FFFD3395E0FCED64F03D
:100026004C6030EF2490601B24C0601224E060090D
:1000360024F07015753801800D7538028008753802
:10004600038003753804E4F523E52375F00AA42537
:1000560038F5617590FDE59054F0FFFD3395E0FCB1
:10006600ED64F04C6030EF2490601B24C0601224D5
:10007600E0600924F07015753805800D7538068026
:10008600087538078003753808E4F523E52375F00D
:100096000AA42538F5617590FBE59054F0FFFD3311
:1000A60095E0FCED64F04C6033EF2490602824C0AA
:1000B600601F24E0601624F07022753809E4F523E9
:1000C600E52375F00AA42538F5618010E4F538803B
:1000D6000875380180037538027523017590F7E5B8
:1000E6009054F0FFFD3395E0FCED64F04C602BEF8F
:1000F6002490601D24C0601224E0600924F0701A68
:100106007538038008753804800375380575230132
:0A01160022753806752301752201D9
:0101200022BC
:1003B800D2B174242538F8E6F580C2B07FC8AE07FC
:1003C8001FEE70FAD2B074242523F8E6F580C2B186
:0803D8007F64AE071FEE70FA0E
:0103E00022FA
:09045E00D28AD2AAC2BAD2AF229E
:0300130002028066
:10028000C0E0C0F0C083C082C0D075D000C000C044
:1002900001C002C003C004C005C006C0077F07122A
:1002A00004448F20300602D208300407E4FD7FE1C9
:1002B000120433AD207F27120433D007D006D005B7
:1002C000D004D003D002D001D000D0D0D082D083CF
:0502D000D0F0D0E03287
:1003FD00C2A6E4FEEF3392A1EF25E0FFD2A6A2A59F
:0A040D00E4334207C2A60EBE08EA5F
:0104170022C2
:10043300C2A21203FDAC07AF051203FDD2A2AF04A3
:010443002296
:06035B008B0A8A0B890CDD
:10036100C2A21203FDAD07E4FCECC3950D5015AB21
:100371000AAA0BA90C8C827583001201CFFF12030C
:08038100FD0C80E5D2A2AF05DE
:010389002251
:0B045300EFD394004004001F80F6224D
:1003E1007B007A007933750D057F3012035B7B004A
:0C03F1007A00792E750D057F2A02035B4F
:0E044400C2A21203FD8F08E4FF1203FDD2A234
:010452002287
:06032A008B0A8A0B890C0E
:10033000C2A21203FDAD07E4FCECC3950D5017E417
:10034000FF1203FDAB0AAA0BA90C8C82758300EF88
:0A0350001201FC0C80E3D2A2AF05FD
:01035A002280
:10038A007FC8120453C2A7C2A2C2A67D017F22124D
:10039A0004337F211204331D7F251204337D147F19
:0E03AA00311204337D077F26120433D2A222C3
:10041800C2A77D0E7F20120433750D147FA012032E
:0B0428005BD2A77F11120453C2A72271
:10000300C2A77D0F7F20120433D2A77FC8020453F7
:08046700C2A7120418020003F1
:03000000020121D9
:0C012100787FE4F6D8FD7581610201686A
:1001AD00C2D530F707B2D563F0FF05F030E70CB2DA
:1001BD00D5F4048463F0FF05F080018430D502F49A
:0201CD0004220A
:1001CF00BB010CE58229F582E5833AF583E02250E5
:1001DF0006E92582F8E622BBFE06E92582F8E2222F
:0D01EF00E58229F582E5833AF583E4932249
:1001FC00F8BB010DE58229F582E5833AF583E8F039
:10020C00225006E92582C8F622BBFE05E92582C8E4
:02021C00F222CC
:10012D0002021EE493A3F8E493A34003F68001F2C8
:10013D0008DFF48029E493A3F85407240CC8C333D3
:10014D00C4540F4420C8834004F456800146F6DFA2
:10015D00E4800B01020408102040809002D5E47E5B
:10016D00019360BCA3FF543F30E509541FFEE49397
:10017D00A360010ECF54C025E060A840B8E493A35E
:10018D00FAE493A3F8E493A3C8C582C8CAC583CA89
:10019D00F0A3C8C582C8CAC583CADFE9DEE780BE41
:0103290000D3
:00000001FF
